{
  "contractName": "ICheckpointManager",
  "abi": [
    {
      "inputs": [
        {
          "internalType": "uint256",
          "name": "",
          "type": "uint256"
        }
      ],
      "name": "headerBlocks",
      "outputs": [
        {
          "internalType": "bytes32",
          "name": "root",
          "type": "bytes32"
        },
        {
          "internalType": "uint256",
          "name": "start",
          "type": "uint256"
        },
        {
          "internalType": "uint256",
          "name": "end",
          "type": "uint256"
        },
        {
          "internalType": "uint256",
          "name": "createdAt",
          "type": "uint256"
        },
        {
          "internalType": "address",
          "name": "proposer",
          "type": "address"
        }
      ],
      "stateMutability": "view",
      "type": "function"
    }
  ],
  "bytecode": "0x608060405234801561001057600080fd5b5060e98061001f6000396000f3fe6080604052348015600f57600080fd5b506004361060285760003560e01c806341539d4a14602d575b600080fd5b604760048036036020811015604157600080fd5b5035607b565b6040805195865260208601949094528484019290925260608401526001600160a01b03166080830152519081900360a00190f35b60006020819052908152604090208054600182015460028301546003840154600490940154929391929091906001600160a01b03168556fea2646970667358221220eb9fd7dc921f0b281244f4299e910bf11cf0d301b11501b049735383de8180e764736f6c63430006060033",
  "immutableReferences": {},
  "source": "pragma solidity 0.6.6;\n\ncontract ICheckpointManager {\n    struct HeaderBlock {\n        bytes32 root;\n        uint256 start;\n        uint256 end;\n        uint256 createdAt;\n        address proposer;\n    }\n\n    /**\n     * @notice mapping of checkpoint header numbers to block details\n     * @dev These checkpoints are submited by plasma contracts\n     */\n    mapping(uint256 => HeaderBlock) public headerBlocks;\n}\n",
  "sourcePath": "/home/moiz/NETSOl/Task-25, Bridge between polygon and ethereum (erc-20) Use-case 2/Ethereum_Polygon_Custom_Bridge_ERC20_Contracts_on_Testnet_without_status_Checks_Use_case_2/contracts/root/ICheckpointManager.sol",
  "compiler": {
    "name": "solc",
    "version": "0.6.6+commit.6c089d02.Emscripten.clang"
  },
  "schemaVersion": "3.4.8",
  "updatedAt": "2022-09-14T07:22:07.880Z",
  "devdoc": {
    "methods": {}
  },
  "userdoc": {
    "methods": {}
  }
}