{
  "contractName": "RootChainManager",
  "abi": [
    {
      "anonymous": false,
      "inputs": [
        {
          "indexed": false,
          "internalType": "address",
          "name": "userAddress",
          "type": "address"
        },
        {
          "indexed": false,
          "internalType": "address payable",
          "name": "relayerAddress",
          "type": "address"
        },
        {
          "indexed": false,
          "internalType": "bytes",
          "name": "functionSignature",
          "type": "bytes"
        }
      ],
      "name": "MetaTransactionExecuted",
      "type": "event"
    },
    {
      "anonymous": false,
      "inputs": [
        {
          "indexed": true,
          "internalType": "bytes32",
          "name": "tokenType",
          "type": "bytes32"
        },
        {
          "indexed": true,
          "internalType": "address",
          "name": "predicateAddress",
          "type": "address"
        }
      ],
      "name": "PredicateRegistered",
      "type": "event"
    },
    {
      "anonymous": false,
      "inputs": [
        {
          "indexed": true,
          "internalType": "bytes32",
          "name": "role",
          "type": "bytes32"
        },
        {
          "indexed": true,
          "internalType": "bytes32",
          "name": "previousAdminRole",
          "type": "bytes32"
        },
        {
          "indexed": true,
          "internalType": "bytes32",
          "name": "newAdminRole",
          "type": "bytes32"
        }
      ],
      "name": "RoleAdminChanged",
      "type": "event"
    },
    {
      "anonymous": false,
      "inputs": [
        {
          "indexed": true,
          "internalType": "bytes32",
          "name": "role",
          "type": "bytes32"
        },
        {
          "indexed": true,
          "internalType": "address",
          "name": "account",
          "type": "address"
        },
        {
          "indexed": true,
          "internalType": "address",
          "name": "sender",
          "type": "address"
        }
      ],
      "name": "RoleGranted",
      "type": "event"
    },
    {
      "anonymous": false,
      "inputs": [
        {
          "indexed": true,
          "internalType": "bytes32",
          "name": "role",
          "type": "bytes32"
        },
        {
          "indexed": true,
          "internalType": "address",
          "name": "account",
          "type": "address"
        },
        {
          "indexed": true,
          "internalType": "address",
          "name": "sender",
          "type": "address"
        }
      ],
      "name": "RoleRevoked",
      "type": "event"
    },
    {
      "anonymous": false,
      "inputs": [
        {
          "indexed": true,
          "internalType": "address",
          "name": "rootToken",
          "type": "address"
        },
        {
          "indexed": true,
          "internalType": "address",
          "name": "childToken",
          "type": "address"
        },
        {
          "indexed": true,
          "internalType": "bytes32",
          "name": "tokenType",
          "type": "bytes32"
        }
      ],
      "name": "TokenMapped",
      "type": "event"
    },
    {
      "inputs": [],
      "name": "DEFAULT_ADMIN_ROLE",
      "outputs": [
        {
          "internalType": "bytes32",
          "name": "",
          "type": "bytes32"
        }
      ],
      "stateMutability": "view",
      "type": "function",
      "constant": true
    },
    {
      "inputs": [],
      "name": "DEPOSIT",
      "outputs": [
        {
          "internalType": "bytes32",
          "name": "",
          "type": "bytes32"
        }
      ],
      "stateMutability": "view",
      "type": "function",
      "constant": true
    },
    {
      "inputs": [],
      "name": "ERC712_VERSION",
      "outputs": [
        {
          "internalType": "string",
          "name": "",
          "type": "string"
        }
      ],
      "stateMutability": "view",
      "type": "function",
      "constant": true
    },
    {
      "inputs": [],
      "name": "ETHER_ADDRESS",
      "outputs": [
        {
          "internalType": "address",
          "name": "",
          "type": "address"
        }
      ],
      "stateMutability": "view",
      "type": "function",
      "constant": true
    },
    {
      "inputs": [],
      "name": "MAPPER_ROLE",
      "outputs": [
        {
          "internalType": "bytes32",
          "name": "",
          "type": "bytes32"
        }
      ],
      "stateMutability": "view",
      "type": "function",
      "constant": true
    },
    {
      "inputs": [],
      "name": "MAP_TOKEN",
      "outputs": [
        {
          "internalType": "bytes32",
          "name": "",
          "type": "bytes32"
        }
      ],
      "stateMutability": "view",
      "type": "function",
      "constant": true
    },
    {
      "inputs": [],
      "name": "childChainManagerAddress",
      "outputs": [
        {
          "internalType": "address",
          "name": "",
          "type": "address"
        }
      ],
      "stateMutability": "view",
      "type": "function",
      "constant": true
    },
    {
      "inputs": [
        {
          "internalType": "address",
          "name": "",
          "type": "address"
        }
      ],
      "name": "childToRootToken",
      "outputs": [
        {
          "internalType": "address",
          "name": "",
          "type": "address"
        }
      ],
      "stateMutability": "view",
      "type": "function",
      "constant": true
    },
    {
      "inputs": [
        {
          "internalType": "address",
          "name": "userAddress",
          "type": "address"
        },
        {
          "internalType": "bytes",
          "name": "functionSignature",
          "type": "bytes"
        },
        {
          "internalType": "bytes32",
          "name": "sigR",
          "type": "bytes32"
        },
        {
          "internalType": "bytes32",
          "name": "sigS",
          "type": "bytes32"
        },
        {
          "internalType": "uint8",
          "name": "sigV",
          "type": "uint8"
        }
      ],
      "name": "executeMetaTransaction",
      "outputs": [
        {
          "internalType": "bytes",
          "name": "",
          "type": "bytes"
        }
      ],
      "stateMutability": "payable",
      "type": "function",
      "payable": true
    },
    {
      "inputs": [],
      "name": "getChainId",
      "outputs": [
        {
          "internalType": "uint256",
          "name": "",
          "type": "uint256"
        }
      ],
      "stateMutability": "pure",
      "type": "function",
      "constant": true
    },
    {
      "inputs": [],
      "name": "getDomainSeperator",
      "outputs": [
        {
          "internalType": "bytes32",
          "name": "",
          "type": "bytes32"
        }
      ],
      "stateMutability": "view",
      "type": "function",
      "constant": true
    },
    {
      "inputs": [
        {
          "internalType": "address",
          "name": "user",
          "type": "address"
        }
      ],
      "name": "getNonce",
      "outputs": [
        {
          "internalType": "uint256",
          "name": "nonce",
          "type": "uint256"
        }
      ],
      "stateMutability": "view",
      "type": "function",
      "constant": true
    },
    {
      "inputs": [
        {
          "internalType": "bytes32",
          "name": "role",
          "type": "bytes32"
        }
      ],
      "name": "getRoleAdmin",
      "outputs": [
        {
          "internalType": "bytes32",
          "name": "",
          "type": "bytes32"
        }
      ],
      "stateMutability": "view",
      "type": "function",
      "constant": true
    },
    {
      "inputs": [
        {
          "internalType": "bytes32",
          "name": "role",
          "type": "bytes32"
        },
        {
          "internalType": "uint256",
          "name": "index",
          "type": "uint256"
        }
      ],
      "name": "getRoleMember",
      "outputs": [
        {
          "internalType": "address",
          "name": "",
          "type": "address"
        }
      ],
      "stateMutability": "view",
      "type": "function",
      "constant": true
    },
    {
      "inputs": [
        {
          "internalType": "bytes32",
          "name": "role",
          "type": "bytes32"
        }
      ],
      "name": "getRoleMemberCount",
      "outputs": [
        {
          "internalType": "uint256",
          "name": "",
          "type": "uint256"
        }
      ],
      "stateMutability": "view",
      "type": "function",
      "constant": true
    },
    {
      "inputs": [
        {
          "internalType": "bytes32",
          "name": "role",
          "type": "bytes32"
        },
        {
          "internalType": "address",
          "name": "account",
          "type": "address"
        }
      ],
      "name": "grantRole",
      "outputs": [],
      "stateMutability": "nonpayable",
      "type": "function"
    },
    {
      "inputs": [
        {
          "internalType": "bytes32",
          "name": "role",
          "type": "bytes32"
        },
        {
          "internalType": "address",
          "name": "account",
          "type": "address"
        }
      ],
      "name": "hasRole",
      "outputs": [
        {
          "internalType": "bool",
          "name": "",
          "type": "bool"
        }
      ],
      "stateMutability": "view",
      "type": "function",
      "constant": true
    },
    {
      "inputs": [
        {
          "internalType": "bytes32",
          "name": "",
          "type": "bytes32"
        }
      ],
      "name": "processedExits",
      "outputs": [
        {
          "internalType": "bool",
          "name": "",
          "type": "bool"
        }
      ],
      "stateMutability": "view",
      "type": "function",
      "constant": true
    },
    {
      "inputs": [
        {
          "internalType": "bytes32",
          "name": "role",
          "type": "bytes32"
        },
        {
          "internalType": "address",
          "name": "account",
          "type": "address"
        }
      ],
      "name": "renounceRole",
      "outputs": [],
      "stateMutability": "nonpayable",
      "type": "function"
    },
    {
      "inputs": [
        {
          "internalType": "bytes32",
          "name": "role",
          "type": "bytes32"
        },
        {
          "internalType": "address",
          "name": "account",
          "type": "address"
        }
      ],
      "name": "revokeRole",
      "outputs": [],
      "stateMutability": "nonpayable",
      "type": "function"
    },
    {
      "inputs": [
        {
          "internalType": "address",
          "name": "",
          "type": "address"
        }
      ],
      "name": "rootToChildToken",
      "outputs": [
        {
          "internalType": "address",
          "name": "",
          "type": "address"
        }
      ],
      "stateMutability": "view",
      "type": "function",
      "constant": true
    },
    {
      "inputs": [
        {
          "internalType": "address",
          "name": "",
          "type": "address"
        }
      ],
      "name": "tokenToType",
      "outputs": [
        {
          "internalType": "bytes32",
          "name": "",
          "type": "bytes32"
        }
      ],
      "stateMutability": "view",
      "type": "function",
      "constant": true
    },
    {
      "inputs": [
        {
          "internalType": "bytes32",
          "name": "",
          "type": "bytes32"
        }
      ],
      "name": "typeToPredicate",
      "outputs": [
        {
          "internalType": "address",
          "name": "",
          "type": "address"
        }
      ],
      "stateMutability": "view",
      "type": "function",
      "constant": true
    },
    {
      "stateMutability": "payable",
      "type": "receive",
      "payable": true
    },
    {
      "inputs": [
        {
          "internalType": "address",
          "name": "_owner",
          "type": "address"
        }
      ],
      "name": "initialize",
      "outputs": [],
      "stateMutability": "nonpayable",
      "type": "function"
    },
    {
      "inputs": [],
      "name": "setupContractId",
      "outputs": [],
      "stateMutability": "nonpayable",
      "type": "function"
    },
    {
      "inputs": [],
      "name": "initializeEIP712",
      "outputs": [],
      "stateMutability": "nonpayable",
      "type": "function"
    },
    {
      "inputs": [
        {
          "internalType": "address",
          "name": "newStateSender",
          "type": "address"
        }
      ],
      "name": "setStateSender",
      "outputs": [],
      "stateMutability": "nonpayable",
      "type": "function"
    },
    {
      "inputs": [],
      "name": "stateSenderAddress",
      "outputs": [
        {
          "internalType": "address",
          "name": "",
          "type": "address"
        }
      ],
      "stateMutability": "view",
      "type": "function",
      "constant": true
    },
    {
      "inputs": [
        {
          "internalType": "address",
          "name": "newCheckpointManager",
          "type": "address"
        }
      ],
      "name": "setCheckpointManager",
      "outputs": [],
      "stateMutability": "nonpayable",
      "type": "function"
    },
    {
      "inputs": [],
      "name": "checkpointManagerAddress",
      "outputs": [
        {
          "internalType": "address",
          "name": "",
          "type": "address"
        }
      ],
      "stateMutability": "view",
      "type": "function",
      "constant": true
    },
    {
      "inputs": [
        {
          "internalType": "address",
          "name": "newChildChainManager",
          "type": "address"
        }
      ],
      "name": "setChildChainManagerAddress",
      "outputs": [],
      "stateMutability": "nonpayable",
      "type": "function"
    },
    {
      "inputs": [
        {
          "internalType": "bytes32",
          "name": "tokenType",
          "type": "bytes32"
        },
        {
          "internalType": "address",
          "name": "predicateAddress",
          "type": "address"
        }
      ],
      "name": "registerPredicate",
      "outputs": [],
      "stateMutability": "nonpayable",
      "type": "function"
    },
    {
      "inputs": [
        {
          "internalType": "address",
          "name": "rootToken",
          "type": "address"
        },
        {
          "internalType": "address",
          "name": "childToken",
          "type": "address"
        },
        {
          "internalType": "bytes32",
          "name": "tokenType",
          "type": "bytes32"
        }
      ],
      "name": "mapToken",
      "outputs": [],
      "stateMutability": "nonpayable",
      "type": "function"
    },
    {
      "inputs": [
        {
          "internalType": "address",
          "name": "rootToken",
          "type": "address"
        },
        {
          "internalType": "address",
          "name": "childToken",
          "type": "address"
        }
      ],
      "name": "cleanMapToken",
      "outputs": [],
      "stateMutability": "nonpayable",
      "type": "function"
    },
    {
      "inputs": [
        {
          "internalType": "address",
          "name": "rootToken",
          "type": "address"
        },
        {
          "internalType": "address",
          "name": "childToken",
          "type": "address"
        },
        {
          "internalType": "bytes32",
          "name": "tokenType",
          "type": "bytes32"
        }
      ],
      "name": "remapToken",
      "outputs": [],
      "stateMutability": "nonpayable",
      "type": "function"
    },
    {
      "inputs": [
        {
          "internalType": "address",
          "name": "user",
          "type": "address"
        }
      ],
      "name": "depositEtherFor",
      "outputs": [],
      "stateMutability": "payable",
      "type": "function",
      "payable": true
    },
    {
      "inputs": [
        {
          "internalType": "address",
          "name": "user",
          "type": "address"
        },
        {
          "internalType": "address",
          "name": "rootToken",
          "type": "address"
        },
        {
          "internalType": "bytes",
          "name": "depositData",
          "type": "bytes"
        }
      ],
      "name": "depositFor",
      "outputs": [],
      "stateMutability": "nonpayable",
      "type": "function"
    },
    {
      "inputs": [
        {
          "internalType": "address",
          "name": "_predicateAddress",
          "type": "address"
        },
        {
          "internalType": "address",
          "name": "_rootTokenAddress",
          "type": "address"
        },
        {
          "internalType": "uint256",
          "name": "_tokenAmount",
          "type": "uint256"
        }
      ],
      "name": "exit",
      "outputs": [],
      "stateMutability": "nonpayable",
      "type": "function"
    }
  ],
  "bytecode": "0x60806040526000805460ff1916905534801561001a57600080fd5b50612da28061002a6000396000f3fe6080604052600436106102295760003560e01c8063886a69ba11610123578063cf1d21c0116100ab578063e2c49de11161006f578063e2c49de1146108e3578063e3dec8fb146108f8578063e43009a61461098e578063e66f9603146109c1578063ea60c7c4146109eb57610240565b8063cf1d21c01461080a578063d233a3c71461081f578063d547741f14610862578063d81c8e521461089b578063dc993a23146108b057610240565b8063a217fddf116100f2578063a217fddf14610750578063b4b4f63e14610765578063bc08452b1461077a578063c4d66de8146107ad578063ca15c873146107e057610240565b8063886a69ba1461068f5780639010d07c146106a45780639173b139146106d457806391d148541461071757610240565b80633138b6f1116101b1578063607f2d4211610175578063607f2d4214610593578063630fcbfb146105d15780636cb136b0146105e65780636e86b7701461061957806371006c091461064c57610240565b80633138b6f1146104f55780633408e4701461050a57806336568abe1461051f5780634faa8a2614610558578063568b80b51461057e57610240565b80630f7e5970116101f85780630f7e59701461042357806320379ee514610438578063248a9ca31461045f5780632d0335ab146104895780632f2ff15d146104bc57610240565b806304967702146102455780630c3894bb146102765780630c53c51c146102b15780630c598220146103ea57610240565b366102405761023e610239610a1e565b610a2e565b005b600080fd5b34801561025157600080fd5b5061025a610b2f565b604080516001600160a01b039092168252519081900360200190f35b34801561028257600080fd5b5061023e6004803603604081101561029957600080fd5b506001600160a01b0381358116916020013516610b3e565b610375600480360360a08110156102c757600080fd5b6001600160a01b0382351691908101906040810160208201356401000000008111156102f257600080fd5b82018360208201111561030457600080fd5b8035906020019184600183028401116401000000008311171561032657600080fd5b91908080601f016020809104026020016040519081016040528093929190818152602001838380828437600092019190915250929550508235935050506020810135906040013560ff16610c71565b6040805160208082528351818301528351919283929083019185019080838360005b838110156103af578181015183820152602001610397565b50505050905090810190601f1680156103dc5780820380516001836020036101000a031916815260200191505b509250505060405180910390f35b3480156103f657600080fd5b5061023e6004803603604081101561040d57600080fd5b50803590602001356001600160a01b0316610f74565b34801561042f57600080fd5b50610375611043565b34801561044457600080fd5b5061044d611060565b60408051918252519081900360200190f35b34801561046b57600080fd5b5061044d6004803603602081101561048257600080fd5b5035611066565b34801561049557600080fd5b5061044d600480360360208110156104ac57600080fd5b50356001600160a01b031661107b565b3480156104c857600080fd5b5061023e600480360360408110156104df57600080fd5b50803590602001356001600160a01b0316611096565b34801561050157600080fd5b5061025a6110fd565b34801561051657600080fd5b5061044d61110c565b34801561052b57600080fd5b5061023e6004803603604081101561054257600080fd5b50803590602001356001600160a01b0316611110565b61023e6004803603602081101561056e57600080fd5b50356001600160a01b0316611171565b34801561058a57600080fd5b5061044d61117d565b34801561059f57600080fd5b506105bd600480360360208110156105b657600080fd5b50356111a0565b604080519115158252519081900360200190f35b3480156105dd57600080fd5b5061023e6111b5565b3480156105f257600080fd5b5061023e6004803603602081101561060957600080fd5b50356001600160a01b031661125b565b34801561062557600080fd5b5061025a6004803603602081101561063c57600080fd5b50356001600160a01b0316611338565b34801561065857600080fd5b5061023e6004803603606081101561066f57600080fd5b506001600160a01b03813581169160208101359091169060400135611353565b34801561069b57600080fd5b5061044d611452565b3480156106b057600080fd5b5061025a600480360360408110156106c757600080fd5b5080359060200135611473565b3480156106e057600080fd5b5061023e600480360360608110156106f757600080fd5b506001600160a01b0381358116916020810135909116906040013561149a565b34801561072357600080fd5b506105bd6004803603604081101561073a57600080fd5b50803590602001356001600160a01b03166115cf565b34801561075c57600080fd5b5061044d6115ed565b34801561077157600080fd5b5061023e6115f2565b34801561078657600080fd5b5061023e6004803603602081101561079d57600080fd5b50356001600160a01b0316611698565b3480156107b957600080fd5b5061023e600480360360208110156107d057600080fd5b50356001600160a01b0316611775565b3480156107ec57600080fd5b5061044d6004803603602081101561080357600080fd5b5035611865565b34801561081657600080fd5b5061025a61187c565b34801561082b57600080fd5b5061023e6004803603606081101561084257600080fd5b506001600160a01b03813581169160208101359091169060400135611894565b34801561086e57600080fd5b5061023e6004803603604081101561088557600080fd5b50803590602001356001600160a01b03166119d8565b3480156108a757600080fd5b5061044d611a31565b3480156108bc57600080fd5b5061023e600480360360208110156108d357600080fd5b50356001600160a01b0316611a50565b3480156108ef57600080fd5b5061025a611b2d565b34801561090457600080fd5b5061023e6004803603606081101561091b57600080fd5b6001600160a01b03823581169260208101359091169181019060608101604082013564010000000081111561094f57600080fd5b82018360208201111561096157600080fd5b8035906020019184600183028401116401000000008311171561098357600080fd5b509092509050611b3c565b34801561099a57600080fd5b5061044d600480360360208110156109b157600080fd5b50356001600160a01b0316611bd9565b3480156109cd57600080fd5b5061025a600480360360208110156109e457600080fd5b5035611beb565b3480156109f757600080fd5b5061025a60048036036020811015610a0e57600080fd5b50356001600160a01b0316611c06565b6000610a28611c21565b90505b90565b604080513460208083019190915282518083039091018152908201909152610a6b8273eeeeeeeeeeeeeeeeeeeeeeeeeeeeeeeeeeeeeeee83611c7e565b7fa1829a9003092132f585b6ccdd167c19fe9774dbdea4260287e8a8e8ca8185d7546000908152600260205260408082205490516001600160a01b039091169034908381818185875af1925050503d8060008114610ae5576040519150601f19603f3d011682016040523d82523d6000602084013e610aea565b606091505b5050905080610b2a5760405162461bcd60e51b8152600401808060200182810382526027815260200180612cac6027913960400191505060405180910390fd5b505050565b6009546001600160a01b031681565b6000610b5181610b4c610a1e565b6115cf565b600a90610bf15760405162461bcd60e51b8152602060048201908152825460026000196101006001841615020190911604602483018190529091829160449091019084908015610be25780601f10610bb757610100808354040283529160200191610be2565b820191906000526020600020905b815481529060010190602001808311610bc557829003601f168201915b50509250505060405180910390fd5b506001600160a01b03808416600081815260036020908152604080832080546001600160a01b0319908116909155948716808452600483528184208054909616909555838352600590915280822082905551909291907f9e651a8866fbea043e911d816ec254b0e3c992c06fff32d605e72362d6023bd9908490a4505050565b6060610c7b6129e8565b50604080516060810182526001600160a01b0388166000818152600c602090815290849020548352820152908101869052610cb987828787876120f8565b610cf45760405162461bcd60e51b8152600401808060200182810382526021815260200180612cd36021913960400191505060405180910390fd5b6001600160a01b0387166000908152600c6020526040902054610d1e90600163ffffffff6121d516565b6001600160a01b0388166000818152600c602090815260408083209490945583519283523383820181905260609484018581528b51958501959095528a517f5845892132946850460bff5a0083f71031bc5bf9aadcd40f1de79423eac9b10b958d9592948d94919260808501928601918190849084905b83811015610dad578181015183820152602001610d95565b50505050905090810190601f168015610dda5780820380516001836020036101000a031916815260200191505b5094505050505060405180910390a160006060306001600160a01b0316888a6040516020018083805190602001908083835b60208310610e2b5780518252601f199092019160209182019101610e0c565b6001836020036101000a038019825116818451168082178552505050505050905001826001600160a01b03166001600160a01b031660601b8152601401925050506040516020818303038152906040526040518082805190602001908083835b60208310610eaa5780518252601f199092019160209182019101610e8b565b6001836020036101000a0380198251168184511680821785525050505050509050019150506000604051808303816000865af19150503d8060008114610f0c576040519150601f19603f3d011682016040523d82523d6000602084013e610f11565b606091505b509150915081610f68576040805162461bcd60e51b815260206004820152601c60248201527f46756e6374696f6e2063616c6c206e6f74207375636365737366756c00000000604482015290519081900360640190fd5b98975050505050505050565b6000610f8281610b4c610a1e565b600a90610fe85760405162461bcd60e51b8152602060048201908152825460026000196101006001841615020190911604602483018190529091829160449091019084908015610be25780601f10610bb757610100808354040283529160200191610be2565b5060008381526002602052604080822080546001600160a01b0319166001600160a01b0386169081179091559051909185917f8643692ae1c12ec91fa18e50b82ed93fa314f580999a236824db6de9ae0d839b9190a3505050565b604051806040016040528060018152602001603160f81b81525081565b600b5490565b60009081526001602052604090206002015490565b6001600160a01b03166000908152600c602052604090205490565b6000828152600160205260409020600201546110b490610b4c610a1e565b6110ef5760405162461bcd60e51b815260040180806020018281038252602f815260200180612af7602f913960400191505060405180910390fd5b6110f9828261222f565b5050565b6008546001600160a01b031690565b4690565b611118610a1e565b6001600160a01b0316816001600160a01b0316146111675760405162461bcd60e51b815260040180806020018281038252602f815260200180612d3e602f913960400191505060405180910390fd5b6110f9828261229e565b61117a81610a2e565b50565b604080516a4d41505045525f524f4c4560a81b8152905190819003600b01902081565b60066020526000908152604090205460ff1681565b60006111c381610b4c610a1e565b600a906112295760405162461bcd60e51b8152602060048201908152825460026000196101006001841615020190911604602483018190529091829160449091019084908015610be25780601f10610bb757610100808354040283529160200191610be2565b5061117a6040518060400160405280601081526020016f2937b7ba21b430b4b726b0b730b3b2b960811b81525061230d565b600061126981610b4c610a1e565b600a906112cf5760405162461bcd60e51b8152602060048201908152825460026000196101006001841615020190911604602483018190529091829160449091019084908015610be25780601f10610bb757610100808354040283529160200191610be2565b506001600160a01b0382166113155760405162461bcd60e51b8152600401808060200182810382526026815260200180612cf46026913960400191505060405180910390fd5b50600780546001600160a01b0319166001600160a01b0392909216919091179055565b6004602052600090815260409020546001600160a01b031681565b600061136181610b4c610a1e565b600a906113c75760405162461bcd60e51b8152602060048201908152825460026000196101006001841615020190911604602483018190529091829160449091019084908015610be25780601f10610bb757610100808354040283529160200191610be2565b50836001600160a01b031663988ec9876113df610a1e565b604080516001600160e01b031960e085901b1681526001600160a01b03928316600482015291871660248301526044820186905251606480830192600092919082900301818387803b15801561143457600080fd5b505af1158015611448573d6000803e3d6000fd5b5050505050505050565b604080516826a0a82faa27a5a2a760b91b8152905190819003600901902081565b6000828152600160205260408120611491908363ffffffff6123c916565b90505b92915050565b604080516a4d41505045525f524f4c4560a81b8152905190819003600b0190206114c681610b4c610a1e565b600a9061152c5760405162461bcd60e51b8152602060048201908152825460026000196101006001841615020190911604602483018190529091829160449091019084908015610be25780601f10610bb757610100808354040283529160200191610be2565b506001600160a01b038481166000908152600360205260409020541615801561156d57506001600160a01b0383811660009081526004602052604090205416155b6115be576040805162461bcd60e51b815260206004820181905260248201527f526f6f74436861696e4d616e616765723a20414c52454144595f4d4150504544604482015290519081900360640190fd5b6115c98484846123d5565b50505050565b6000828152600160205260408120611491908363ffffffff61264616565b600081565b600061160081610b4c610a1e565b600a906116665760405162461bcd60e51b8152602060048201908152825460026000196101006001841615020190911604602483018190529091829160449091019084908015610be25780601f10610bb757610100808354040283529160200191610be2565b5061117a6040518060400160405280601081526020016f2937b7ba21b430b4b726b0b730b3b2b960811b81525061265b565b60006116a681610b4c610a1e565b600a9061170c5760405162461bcd60e51b8152602060048201908152825460026000196101006001841615020190911604602483018190529091829160449091019084908015610be25780601f10610bb757610100808354040283529160200191610be2565b506001600160a01b0382166117525760405162461bcd60e51b815260040180806020018281038252602c815260200180612c80602c913960400191505060405180910390fd5b50600880546001600160a01b0319166001600160a01b0392909216919091179055565b60005460ff16156117be576040805162461bcd60e51b815260206004820152600e60248201526d185b1c9958591e481a5b9a5d195960921b604482015290519081900360640190fd5b6117ef6040518060400160405280601081526020016f2937b7ba21b430b4b726b0b730b3b2b960811b8152506126f9565b6118206040518060400160405280601081526020016f2937b7ba21b430b4b726b0b730b3b2b960811b81525061265b565b61182b6000826110ef565b604080516a4d41505045525f524f4c4560a81b8152905190819003600b01902061185590826110ef565b506000805460ff19166001179055565b60008181526001602052604081206114949061274b565b73eeeeeeeeeeeeeeeeeeeeeeeeeeeeeeeeeeeeeeee81565b60006118a281610b4c610a1e565b600a906119085760405162461bcd60e51b8152602060048201908152825460026000196101006001841615020190911604602483018190529091829160449091019084908015610be25780601f10610bb757610100808354040283529160200191610be2565b506001600160a01b038085166000908152600360208181526040808420548886168552600483528185205486168086529390925290922054918316929091161561197e576001600160a01b038116600090815260036020908152604080832080546001600160a01b031916905560059091528120555b6001600160a01b0382811660009081526004602052604090205416156119c5576001600160a01b038216600090815260046020526040902080546001600160a01b03191690555b6119d08686866123d5565b505050505050565b6000828152600160205260409020600201546119f690610b4c610a1e565b6111675760405162461bcd60e51b8152600401808060200182810382526030815260200180612c2b6030913960400191505060405180910390fd5b604080516611115413d4d25560ca1b8152905190819003600701902081565b6000611a5e81610b4c610a1e565b600a90611ac45760405162461bcd60e51b8152602060048201908152825460026000196101006001841615020190911604602483018190529091829160449091019084908015610be25780601f10610bb757610100808354040283529160200191610be2565b506001600160a01b038216611b0a5760405162461bcd60e51b815260040180806020018281038252602d815260200180612b26602d913960400191505060405180910390fd5b50600980546001600160a01b0319166001600160a01b0392909216919091179055565b6007546001600160a01b031690565b6001600160a01b03831673eeeeeeeeeeeeeeeeeeeeeeeeeeeeeeeeeeeeeeee1415611b985760405162461bcd60e51b8152600401808060200182810382526024815260200180612d1a6024913960400191505060405180910390fd5b6115c9848484848080601f016020809104026020016040519081016040528093929190818152602001838380828437600092019190915250611c7e92505050565b60056020526000908152604090205481565b6002602052600090815260409020546001600160a01b031681565b6003602052600090815260409020546001600160a01b031681565b600033301415611c795760606000368080601f0160208091040260200160405190810160405280939291908181526020018383808284376000920191909152505050503601516001600160a01b03169150610a2b9050565b503390565b6001600160a01b0380831660009081526005602090815260408083205460039092529091205490911615801590611cb457508015155b611cef5760405162461bcd60e51b8152600401808060200182810382526022815260200180612c096022913960400191505060405180910390fd5b6000818152600260205260409020546001600160a01b031680611d435760405162461bcd60e51b8152600401808060200182810382526024815260200180612b966024913960400191505060405180910390fd5b6001600160a01b038516611d9e576040805162461bcd60e51b815260206004820152601e60248201527f526f6f74436861696e4d616e616765723a20494e56414c49445f555345520000604482015290519081900360640190fd5b806001600160a01b031663e375b64e611db5610a1e565b8787876040518563ffffffff1660e01b815260040180856001600160a01b03166001600160a01b03168152602001846001600160a01b03166001600160a01b03168152602001836001600160a01b03166001600160a01b0316815260200180602001828103825283818151815260200191508051906020019080838360005b83811015611e4c578181015183820152602001611e34565b50505050905090810190601f168015611e795780820380516001836020036101000a031916815260200191505b5095505050505050600060405180830381600087803b158015611e9b57600080fd5b505af1158015611eaf573d6000803e3d6000fd5b50505050606085858560405160200180846001600160a01b03166001600160a01b03168152602001836001600160a01b03166001600160a01b0316815260200180602001828103825283818151815260200191508051906020019080838360005b83811015611f28578181015183820152602001611f10565b50505050905090810190601f168015611f555780820380516001836020036101000a031916815260200191505b5060408051808303601f19018152828252600780546009546611115413d4d25560ca1b865284519586900390920185206020808701828152878701968752855160608901528551959d506001600160a01b039384169c506316f198319b5092909316985096508a955093608001919085019080838360005b83811015611fe5578181015183820152602001611fcd565b50505050905090810190601f1680156120125780820380516001836020036101000a031916815260200191505b5093505050506040516020818303038152906040526040518363ffffffff1660e01b815260040180836001600160a01b03166001600160a01b0316815260200180602001828103825283818151815260200191508051906020019080838360005b8381101561208b578181015183820152602001612073565b50505050905090810190601f1680156120b85780820380516001836020036101000a031916815260200191505b509350505050600060405180830381600087803b1580156120d857600080fd5b505af11580156120ec573d6000803e3d6000fd5b50505050505050505050565b60006001600160a01b03861661213f5760405162461bcd60e51b8152600401808060200182810382526025815260200180612c5b6025913960400191505060405180910390fd5b600161215261214d87612756565b6127e2565b83868660405160008152602001604052604051808581526020018460ff1660ff1681526020018381526020018281526020019450505050506020604051602081039080840390855afa1580156121ac573d6000803e3d6000fd5b505050602060405103516001600160a01b0316866001600160a01b031614905095945050505050565b600082820183811015611491576040805162461bcd60e51b815260206004820152601b60248201527f536166654d6174683a206164646974696f6e206f766572666c6f770000000000604482015290519081900360640190fd5b600082815260016020526040902061224d908263ffffffff61282e16565b156110f95761225a610a1e565b6001600160a01b0316816001600160a01b0316837f2f8788117e7eff1d82e926ec794901d17c78024a50270940304540a733656f0d60405160405180910390a45050565b60008281526001602052604090206122bc908263ffffffff61284316565b156110f9576122c9610a1e565b6001600160a01b0316816001600160a01b0316837ff6391f5c32d9c69d2a47ea670b442974b53935d1edc7fd64eb21e047a839171b60405160405180910390a45050565b6040518060800160405280604f8152602001612bba604f913980516020918201208251838301206040805180820190915260018152603160f81b930192909252907fc89efdaa54c0f20c7adf612882df0950f5a951637e0307cdcb4c672f298b8bc63061237861110c565b604080516020808201979097528082019590955260608501939093526001600160a01b03909116608084015260a0808401919091528151808403909101815260c090920190528051910120600b5550565b60006114918383612858565b6000818152600260205260409020546001600160a01b03166124285760405162461bcd60e51b815260040180806020018281038252602a815260200180612aab602a913960400191505060405180910390fd5b6001600160a01b03808416600081815260036020908152604080832080549588166001600160a01b031996871681179091558084526004835281842080549096168517909555838352600590915280822085905551849392917f9e651a8866fbea043e911d816ec254b0e3c992c06fff32d605e72362d6023bd991a4604080516001600160a01b0380861660208084019190915281861683850152606083810186905284518085038201815260808086018088526007546009546826a0a82faa27a5a2a760b91b9092528851978890036089018820888701818152898b019a8b528551968a019690965284519499918816986316f1983198939093169690958a9590949293909201919085019080838360005b8381101561255357818101518382015260200161253b565b50505050905090810190601f1680156125805780820380516001836020036101000a031916815260200191505b5093505050506040516020818303038152906040526040518363ffffffff1660e01b815260040180836001600160a01b03166001600160a01b0316815260200180602001828103825283818151815260200191508051906020019080838360005b838110156125f95781810151838201526020016125e1565b50505050905090810190601f1680156126265780820380516001836020036101000a031916815260200191505b509350505050600060405180830381600087803b15801561143457600080fd5b6000611491836001600160a01b0384166128bc565b806040516020018082805190602001908083835b6020831061268e5780518252601f19909201916020918201910161266f565b51815160209384036101000a60001901801990921691161790527f3a20494e53554646494349454e545f5045524d495353494f4e530000000000009190930190815260408051808303600519018152601a909201905280516110f99550600a94509201919050612a12565b60005460ff1615612742576040805162461bcd60e51b815260206004820152600e60248201526d185b1c9958591e481a5b9a5d195960921b604482015290519081900360640190fd5b6118558161230d565b6000611494826128d4565b6000604051806080016040528060438152602001612b5360439139805190602001208260000151836020015184604001518051906020012060405160200180858152602001848152602001836001600160a01b03166001600160a01b03168152602001828152602001945050505050604051602081830303815290604052805190602001209050919050565b60006127ec611060565b82604051602001808061190160f01b81525060020183815260200182815260200192505050604051602081830303815290604052805190602001209050919050565b6000611491836001600160a01b0384166128d8565b6000611491836001600160a01b038416612922565b8154600090821061289a5760405162461bcd60e51b8152600401808060200182810382526022815260200180612ad56022913960400191505060405180910390fd5b8260000182815481106128a957fe5b9060005260206000200154905092915050565b60009081526001919091016020526040902054151590565b5490565b60006128e483836128bc565b61291a57508154600181810184556000848152602080822090930184905584548482528286019093526040902091909155611494565b506000611494565b600081815260018301602052604081205480156129de578354600019808301919081019060009087908390811061295557fe5b906000526020600020015490508087600001848154811061297257fe5b6000918252602080832090910192909255828152600189810190925260409020908401905586548790806129a257fe5b60019003818190600052602060002001600090559055866001016000878152602001908152602001600020600090556001945050505050611494565b6000915050611494565b60405180606001604052806000815260200160006001600160a01b03168152602001606081525090565b828054600181600116156101000203166002900490600052602060002090601f016020900481019282601f10612a5357805160ff1916838001178555612a80565b82800160010185558215612a80579182015b82811115612a80578251825591602001919060010190612a65565b50612a8c929150612a90565b5090565b610a2b91905b80821115612a8c5760008155600101612a9656fe526f6f74436861696e4d616e616765723a20544f4b454e5f545950455f4e4f545f535550504f52544544456e756d657261626c655365743a20696e646578206f7574206f6620626f756e6473416363657373436f6e74726f6c3a2073656e646572206d75737420626520616e2061646d696e20746f206772616e74526f6f74436861696e4d616e616765723a20494e56414c49445f4348494c445f434841494e5f414444524553534d6574615472616e73616374696f6e2875696e74323536206e6f6e63652c616464726573732066726f6d2c62797465732066756e6374696f6e5369676e617475726529526f6f74436861696e4d616e616765723a20494e56414c49445f544f4b454e5f54595045454950373132446f6d61696e28737472696e67206e616d652c737472696e672076657273696f6e2c6164647265737320766572696679696e67436f6e74726163742c627974657333322073616c7429526f6f74436861696e4d616e616765723a20544f4b454e5f4e4f545f4d4150504544416363657373436f6e74726f6c3a2073656e646572206d75737420626520616e2061646d696e20746f207265766f6b654e61746976654d6574615472616e73616374696f6e3a20494e56414c49445f5349474e4552526f6f74436861696e4d616e616765723a204241445f4e45575f434845434b504f494e545f4d414e41474552526f6f74436861696e4d616e616765723a2045544845525f5452414e534645525f4641494c45445369676e657220616e64207369676e617475726520646f206e6f74206d61746368526f6f74436861696e4d616e616765723a204241445f4e45575f53544154455f53454e444552526f6f74436861696e4d616e616765723a20494e56414c49445f524f4f545f544f4b454e416363657373436f6e74726f6c3a2063616e206f6e6c792072656e6f756e636520726f6c657320666f722073656c66a264697066735822122018fc57a97924a01daac4ec545e26846c10b5820d0266acbb8cdbaf9056009ea864736f6c63430006060033",
  "immutableReferences": {},
  "source": "pragma solidity 0.6.6;\n\nimport {SafeMath} from \"@openzeppelin/contracts/math/SafeMath.sol\";\nimport {IRootChainManager} from \"./IRootChainManager.sol\";\nimport {RootChainManagerStorage} from \"./RootChainManagerStorage.sol\";\nimport {IStateSender} from \"../StateSender/IStateSender.sol\";\nimport {ICheckpointManager} from \"../ICheckpointManager.sol\";\nimport {RLPReader} from \"../../lib/RLPReader.sol\";\nimport {ExitPayloadReader} from \"../../lib/ExitPayloadReader.sol\";\nimport {MerklePatriciaProof} from \"../../lib/MerklePatriciaProof.sol\";\nimport {Merkle} from \"../../lib/Merkle.sol\";\nimport {ITokenPredicate} from \"../TokenPredicates/ITokenPredicate.sol\";\nimport {Initializable} from \"../../common/Initializable.sol\";\nimport {NativeMetaTransaction} from \"../../common/NativeMetaTransaction.sol\";\nimport {AccessControl} from \"@openzeppelin/contracts/access/AccessControl.sol\";\nimport {AccessControlMixin} from \"../../common/AccessControlMixin.sol\";\nimport {ContextMixin} from \"../../common/ContextMixin.sol\";\n\ncontract RootChainManager is\n    IRootChainManager,\n    Initializable,\n    AccessControl, // included to match old storage layout while upgrading\n    RootChainManagerStorage, // created to match old storage layout while upgrading\n    AccessControlMixin,\n    NativeMetaTransaction,\n    ContextMixin\n{\n    using ExitPayloadReader for bytes;\n    using ExitPayloadReader for ExitPayloadReader.ExitPayload;\n    using ExitPayloadReader for ExitPayloadReader.Log;\n    using ExitPayloadReader for ExitPayloadReader.Receipt;\n\n    using Merkle for bytes32;\n    using SafeMath for uint256;\n\n    // maybe DEPOSIT and MAP_TOKEN can be reduced to bytes4\n    bytes32 public constant DEPOSIT = keccak256(\"DEPOSIT\");\n    bytes32 public constant MAP_TOKEN = keccak256(\"MAP_TOKEN\");\n    address public constant ETHER_ADDRESS =\n        0xEeeeeEeeeEeEeeEeEeEeeEEEeeeeEeeeeeeeEEeE;\n    bytes32 public constant MAPPER_ROLE = keccak256(\"MAPPER_ROLE\");\n\n    function _msgSender()\n        internal\n        view\n        override\n        returns (address payable sender)\n    {\n        return ContextMixin.msgSender();\n    }\n\n    /**\n     * @notice Deposit ether by directly sending to the contract\n     * The account sending ether receives WETH on child chain\n     */\n    receive() external payable {\n        _depositEtherFor(_msgSender());\n    }\n\n    /**\n     * @notice Initialize the contract after it has been proxified\n     * @dev meant to be called once immediately after deployment\n     * @param _owner the account that should be granted admin role\n     */\n    function initialize(address _owner) external initializer {\n        _initializeEIP712(\"RootChainManager\");\n        _setupContractId(\"RootChainManager\");\n        _setupRole(DEFAULT_ADMIN_ROLE, _owner);\n        _setupRole(MAPPER_ROLE, _owner);\n    }\n\n    // adding seperate function setupContractId since initialize is already called with old implementation\n    function setupContractId() external only(DEFAULT_ADMIN_ROLE) {\n        _setupContractId(\"RootChainManager\");\n    }\n\n    // adding seperate function initializeEIP712 since initialize is already called with old implementation\n    function initializeEIP712() external only(DEFAULT_ADMIN_ROLE) {\n        _setDomainSeperator(\"RootChainManager\");\n    }\n\n    /**\n     * @notice Set the state sender, callable only by admins\n     * @dev This should be the state sender from plasma contracts\n     * It is used to send bytes from root to child chain\n     * @param newStateSender address of state sender contract\n     */\n    function setStateSender(address newStateSender)\n        external\n        only(DEFAULT_ADMIN_ROLE)\n    {\n        require(\n            newStateSender != address(0),\n            \"RootChainManager: BAD_NEW_STATE_SENDER\"\n        );\n        _stateSender = IStateSender(newStateSender);\n    }\n\n    /**\n     * @notice Get the address of contract set as state sender\n     * @return The address of state sender contract\n     */\n    function stateSenderAddress() external view returns (address) {\n        return address(_stateSender);\n    }\n\n    /**\n     * @notice Set the checkpoint manager, callable only by admins\n     * @dev This should be the plasma contract responsible for keeping track of checkpoints\n     * @param newCheckpointManager address of checkpoint manager contract\n     */\n    function setCheckpointManager(address newCheckpointManager)\n        external\n        only(DEFAULT_ADMIN_ROLE)\n    {\n        require(\n            newCheckpointManager != address(0),\n            \"RootChainManager: BAD_NEW_CHECKPOINT_MANAGER\"\n        );\n        _checkpointManager = ICheckpointManager(newCheckpointManager);\n    }\n\n    /**\n     * @notice Get the address of contract set as checkpoint manager\n     * @return The address of checkpoint manager contract\n     */\n    function checkpointManagerAddress() external view returns (address) {\n        return address(_checkpointManager);\n    }\n\n    /**\n     * @notice Set the child chain manager, callable only by admins\n     * @dev This should be the contract responsible to receive deposit bytes on child chain\n     * @param newChildChainManager address of child chain manager contract\n     */\n    function setChildChainManagerAddress(address newChildChainManager)\n        external\n        only(DEFAULT_ADMIN_ROLE)\n    {\n        require(\n            newChildChainManager != address(0x0),\n            \"RootChainManager: INVALID_CHILD_CHAIN_ADDRESS\"\n        );\n        childChainManagerAddress = newChildChainManager;\n    }\n\n    /**\n     * @notice Register a token predicate address against its type, callable only by ADMIN\n     * @dev A predicate is a contract responsible to process the token specific logic while locking or exiting tokens\n     * @param tokenType bytes32 unique identifier for the token type\n     * @param predicateAddress address of token predicate address\n     */\n    function registerPredicate(bytes32 tokenType, address predicateAddress)\n        external\n        override\n        only(DEFAULT_ADMIN_ROLE)\n    {\n        typeToPredicate[tokenType] = predicateAddress;\n        emit PredicateRegistered(tokenType, predicateAddress);\n    }\n\n    /**\n     * @notice Map a token to enable its movement via the PoS Portal, callable only by mappers\n     * @param rootToken address of token on root chain\n     * @param childToken address of token on child chain\n     * @param tokenType bytes32 unique identifier for the token type\n     */\n    function mapToken(\n        address rootToken,\n        address childToken,\n        bytes32 tokenType\n    ) external override only(MAPPER_ROLE) {\n        // explicit check if token is already mapped to avoid accidental remaps\n        require(\n            rootToChildToken[rootToken] == address(0) &&\n                childToRootToken[childToken] == address(0),\n            \"RootChainManager: ALREADY_MAPPED\"\n        );\n        _mapToken(rootToken, childToken, tokenType);\n    }\n\n    /**\n     * @notice Clean polluted token mapping\n     * @param rootToken address of token on root chain. Since rename token was introduced later stage,\n     * clean method is used to clean pollulated mapping\n     */\n    function cleanMapToken(address rootToken, address childToken)\n        external\n        override\n        only(DEFAULT_ADMIN_ROLE)\n    {\n        rootToChildToken[rootToken] = address(0);\n        childToRootToken[childToken] = address(0);\n        tokenToType[rootToken] = bytes32(0);\n\n        emit TokenMapped(rootToken, childToken, tokenToType[rootToken]);\n    }\n\n    /**\n     * @notice Remap a token that has already been mapped, properly cleans up old mapping\n     * Callable only by ADMIN\n     * @param rootToken address of token on root chain\n     * @param childToken address of token on child chain\n     * @param tokenType bytes32 unique identifier for the token type\n     */\n    function remapToken(\n        address rootToken,\n        address childToken,\n        bytes32 tokenType\n    ) external override only(DEFAULT_ADMIN_ROLE) {\n        // cleanup old mapping\n        address oldChildToken = rootToChildToken[rootToken];\n        address oldRootToken = childToRootToken[childToken];\n\n        if (rootToChildToken[oldRootToken] != address(0)) {\n            rootToChildToken[oldRootToken] = address(0);\n            tokenToType[oldRootToken] = bytes32(0);\n        }\n\n        if (childToRootToken[oldChildToken] != address(0)) {\n            childToRootToken[oldChildToken] = address(0);\n        }\n\n        _mapToken(rootToken, childToken, tokenType);\n    }\n\n    function _mapToken(\n        address rootToken,\n        address childToken,\n        bytes32 tokenType\n    ) private {\n        require(\n            typeToPredicate[tokenType] != address(0x0),\n            \"RootChainManager: TOKEN_TYPE_NOT_SUPPORTED\"\n        );\n\n        rootToChildToken[rootToken] = childToken;\n        childToRootToken[childToken] = rootToken;\n        tokenToType[rootToken] = tokenType;\n\n        emit TokenMapped(rootToken, childToken, tokenType);\n\n        bytes memory syncData = abi.encode(rootToken, childToken, tokenType);\n        _stateSender.syncState(\n            childChainManagerAddress,\n            abi.encode(MAP_TOKEN, syncData)\n        );\n    }\n\n    /**\n     * @notice Move ether from root to child chain, accepts ether transfer\n     * Keep in mind this ether cannot be used to pay gas on child chain\n     * Use Matic tokens deposited using plasma mechanism for that\n     * @param user address of account that should receive WETH on child chain\n     */\n    function depositEtherFor(address user) external payable override {\n        _depositEtherFor(user);\n    }\n\n    /**\n     * @notice Move tokens from root to child chain\n     * @dev This mechanism supports arbitrary tokens as long as its predicate has been registered and the token is mapped\n     * @param user address of account that should receive this deposit on child chain\n     * @param rootToken address of token that is being deposited\n     * @param depositData bytes data that is sent to predicate and child token contracts to handle deposit\n     */\n    function depositFor(\n        address user,\n        address rootToken,\n        bytes calldata depositData\n    ) external override {\n        require(\n            rootToken != ETHER_ADDRESS,\n            \"RootChainManager: INVALID_ROOT_TOKEN\"\n        );\n        _depositFor(user, rootToken, depositData);\n    }\n\n    function _depositEtherFor(address user) private {\n        bytes memory depositData = abi.encode(msg.value);\n        _depositFor(user, ETHER_ADDRESS, depositData);\n\n        // payable(typeToPredicate[tokenToType[ETHER_ADDRESS]]).transfer(msg.value);\n        // transfer doesn't work as expected when receiving contract is proxified so using call\n        (\n            bool success, /* bytes memory data */\n\n        ) = typeToPredicate[tokenToType[ETHER_ADDRESS]].call{value: msg.value}(\n                \"\"\n            );\n        if (!success) {\n            revert(\"RootChainManager: ETHER_TRANSFER_FAILED\");\n        }\n    }\n\n    function _depositFor(\n        address user,\n        address rootToken,\n        bytes memory depositData\n    ) private {\n        bytes32 tokenType = tokenToType[rootToken];\n        require(\n            rootToChildToken[rootToken] != address(0x0) && tokenType != 0,\n            \"RootChainManager: TOKEN_NOT_MAPPED\"\n        );\n        address predicateAddress = typeToPredicate[tokenType];\n        require(\n            predicateAddress != address(0),\n            \"RootChainManager: INVALID_TOKEN_TYPE\"\n        );\n        require(user != address(0), \"RootChainManager: INVALID_USER\");\n\n        ITokenPredicate(predicateAddress).lockTokens(\n            _msgSender(),\n            user,\n            rootToken,\n            depositData\n        );\n        bytes memory syncData = abi.encode(user, rootToken, depositData);\n        _stateSender.syncState(\n            childChainManagerAddress,\n            abi.encode(DEPOSIT, syncData)\n        );\n    }\n\n    /**\n     * @notice exit tokens by providing ERC20Predicate address,Root Token address and ERC20Token Amount which needs to be released by the ERC20Predicate\n     * @dev This function releases the ERC20 Tokens that where locked in by ERC20Predicate contract when RootchainManagers depositFor() was called.\n     * callable only by default admin\n     * @param _predicateAddress: ERC20Predicate address which locked the tokens\n     * @param _rootTokenAddress: Root Token address  on Ethereum Chain.\n     * @param _tokenAmount: ERC20 Tokens Amount which needs to be unlocked and refunded on the root chain\n     */\n\n    function exit(\n        address _predicateAddress,\n        address _rootTokenAddress,\n        uint256 _tokenAmount\n    ) external override only(DEFAULT_ADMIN_ROLE) {\n        // address rootToken = childToRootToken[log.getEmitter()];\n        // require(rootToken != address(0), \"RootChainManager: TOKEN_NOT_MAPPED\");\n        // address predicateAddress = typeToPredicate[tokenToType[rootToken]];\n\n        ITokenPredicate(_predicateAddress).exitTokens(\n            _msgSender(),\n            _rootTokenAddress,\n            _tokenAmount\n        );\n    }\n\n    function _checkBlockMembershipInCheckpoint(\n        uint256 blockNumber,\n        uint256 blockTime,\n        bytes32 txRoot,\n        bytes32 receiptRoot,\n        uint256 headerNumber,\n        bytes memory blockProof\n    ) private view returns (uint256) {\n        (\n            bytes32 headerRoot,\n            uint256 startBlock,\n            ,\n            uint256 createdAt,\n\n        ) = _checkpointManager.headerBlocks(headerNumber);\n\n        require(\n            keccak256(\n                abi.encodePacked(blockNumber, blockTime, txRoot, receiptRoot)\n            ).checkMembership(\n                    blockNumber.sub(startBlock),\n                    headerRoot,\n                    blockProof\n                ),\n            \"RootChainManager: INVALID_HEADER\"\n        );\n        return createdAt;\n    }\n}\n",
  "sourcePath": "/home/moiz/NETSOl/Task-25, Bridge between polygon and ethereum (erc-20) Use-case 2/Ethereum_Polygon_Custom_Bridge_ERC20_Contracts_on_Testnet_without_status_Checks_Use_case_2/contracts/root/RootChainManager/RootChainManager.sol",
  "compiler": {
    "name": "solc",
    "version": "0.6.6+commit.6c089d02.Emscripten.clang"
  },
  "schemaVersion": "3.4.8",
  "updatedAt": "2022-09-14T08:28:27.353Z",
  "networkType": "ethereum",
  "devdoc": {
    "methods": {
      "cleanMapToken(address,address)": {
        "params": {
          "rootToken": "address of token on root chain. Since rename token was introduced later stage, clean method is used to clean pollulated mapping"
        }
      },
      "depositEtherFor(address)": {
        "params": {
          "user": "address of account that should receive WETH on child chain"
        }
      },
      "depositFor(address,address,bytes)": {
        "details": "This mechanism supports arbitrary tokens as long as its predicate has been registered and the token is mapped",
        "params": {
          "depositData": "bytes data that is sent to predicate and child token contracts to handle deposit",
          "rootToken": "address of token that is being deposited",
          "user": "address of account that should receive this deposit on child chain"
        }
      },
      "exit(address,address,uint256)": {
        "details": "This function releases the ERC20 Tokens that where locked in by ERC20Predicate contract when RootchainManagers depositFor() was called. callable only by default admin",
        "params": {
          "_predicateAddress": ": ERC20Predicate address which locked the tokens",
          "_rootTokenAddress": ": Root Token address  on Ethereum Chain.",
          "_tokenAmount": ": ERC20 Tokens Amount which needs to be unlocked and refunded on the root chain"
        }
      },
      "getRoleAdmin(bytes32)": {
        "details": "Returns the admin role that controls `role`. See {grantRole} and {revokeRole}.     * To change a role's admin, use {_setRoleAdmin}."
      },
      "getRoleMember(bytes32,uint256)": {
        "details": "Returns one of the accounts that have `role`. `index` must be a value between 0 and {getRoleMemberCount}, non-inclusive.     * Role bearers are not sorted in any particular way, and their ordering may change at any point.     * WARNING: When using {getRoleMember} and {getRoleMemberCount}, make sure you perform all queries on the same block. See the following https://forum.openzeppelin.com/t/iterating-over-elements-on-enumerableset-in-openzeppelin-contracts/2296[forum post] for more information."
      },
      "getRoleMemberCount(bytes32)": {
        "details": "Returns the number of accounts that have `role`. Can be used together with {getRoleMember} to enumerate all bearers of a role."
      },
      "grantRole(bytes32,address)": {
        "details": "Grants `role` to `account`.     * If `account` had not been already granted `role`, emits a {RoleGranted} event.     * Requirements:     * - the caller must have ``role``'s admin role."
      },
      "hasRole(bytes32,address)": {
        "details": "Returns `true` if `account` has been granted `role`."
      },
      "initialize(address)": {
        "details": "meant to be called once immediately after deployment",
        "params": {
          "_owner": "the account that should be granted admin role"
        }
      },
      "mapToken(address,address,bytes32)": {
        "params": {
          "childToken": "address of token on child chain",
          "rootToken": "address of token on root chain",
          "tokenType": "bytes32 unique identifier for the token type"
        }
      },
      "registerPredicate(bytes32,address)": {
        "details": "A predicate is a contract responsible to process the token specific logic while locking or exiting tokens",
        "params": {
          "predicateAddress": "address of token predicate address",
          "tokenType": "bytes32 unique identifier for the token type"
        }
      },
      "remapToken(address,address,bytes32)": {
        "params": {
          "childToken": "address of token on child chain",
          "rootToken": "address of token on root chain",
          "tokenType": "bytes32 unique identifier for the token type"
        }
      },
      "renounceRole(bytes32,address)": {
        "details": "Revokes `role` from the calling account.     * Roles are often managed via {grantRole} and {revokeRole}: this function's purpose is to provide a mechanism for accounts to lose their privileges if they are compromised (such as when a trusted device is misplaced).     * If the calling account had been granted `role`, emits a {RoleRevoked} event.     * Requirements:     * - the caller must be `account`."
      },
      "revokeRole(bytes32,address)": {
        "details": "Revokes `role` from `account`.     * If `account` had been granted `role`, emits a {RoleRevoked} event.     * Requirements:     * - the caller must have ``role``'s admin role."
      },
      "setCheckpointManager(address)": {
        "details": "This should be the plasma contract responsible for keeping track of checkpoints",
        "params": {
          "newCheckpointManager": "address of checkpoint manager contract"
        }
      },
      "setChildChainManagerAddress(address)": {
        "details": "This should be the contract responsible to receive deposit bytes on child chain",
        "params": {
          "newChildChainManager": "address of child chain manager contract"
        }
      },
      "setStateSender(address)": {
        "details": "This should be the state sender from plasma contracts It is used to send bytes from root to child chain",
        "params": {
          "newStateSender": "address of state sender contract"
        }
      }
    }
  },
  "userdoc": {
    "methods": {
      "checkpointManagerAddress()": {
        "notice": "Get the address of contract set as checkpoint manager"
      },
      "cleanMapToken(address,address)": {
        "notice": "Clean polluted token mapping"
      },
      "depositEtherFor(address)": {
        "notice": "Move ether from root to child chain, accepts ether transfer Keep in mind this ether cannot be used to pay gas on child chain Use Matic tokens deposited using plasma mechanism for that"
      },
      "depositFor(address,address,bytes)": {
        "notice": "Move tokens from root to child chain"
      },
      "exit(address,address,uint256)": {
        "notice": "exit tokens by providing ERC20Predicate address,Root Token address and ERC20Token Amount which needs to be released by the ERC20Predicate"
      },
      "initialize(address)": {
        "notice": "Initialize the contract after it has been proxified"
      },
      "mapToken(address,address,bytes32)": {
        "notice": "Map a token to enable its movement via the PoS Portal, callable only by mappers"
      },
      "registerPredicate(bytes32,address)": {
        "notice": "Register a token predicate address against its type, callable only by ADMIN"
      },
      "remapToken(address,address,bytes32)": {
        "notice": "Remap a token that has already been mapped, properly cleans up old mapping Callable only by ADMIN"
      },
      "setCheckpointManager(address)": {
        "notice": "Set the checkpoint manager, callable only by admins"
      },
      "setChildChainManagerAddress(address)": {
        "notice": "Set the child chain manager, callable only by admins"
      },
      "setStateSender(address)": {
        "notice": "Set the state sender, callable only by admins"
      },
      "stateSenderAddress()": {
        "notice": "Get the address of contract set as state sender"
      }
    }
  }
}